:020000040800F2
:1000000000000320950F00086530000867300008E5
:10001000693000086B3000086D30000800000000F7
:10002000000000000000000000000000818A0008BD
:100030006F30000800000000118B00084F8300089B
:10004000E50F0008E50F0008E50F0008E50F0008C0
:10005000E50F0008E50F0008E50F0008E50F0008B0
:10006000E50F0008E50F0008E50F0008E50F0008A0
:10007000E50F0008E50F0008E50F0008E50F000890
:10008000E50F0008E50F0008E50F0008E50F000880
:10009000E50F0008E50F0008E50F0008E50F000870
:1000A000E50F0008E50F0008E50F0008E50F000860
:1000B000E50F0008E50F0008E50F0008E50F000850
:1000C000E50F0008E50F0008E50F0008E50F000840
:1000D000E50F0008E50F0008E50F0008E50F000830
:1000E000E50F0008E50F0008E50F0008E50F000820
:1000F000E50F0008E50F0008E50F0008E50F000810
:10010000E50F0008E50F0008E50F0008E50F0008FF
:10011000E50F0008E50F000871300008E50F000842
:10012000E50F0008E50F0008E50F0008E50F0008DF
:10013000E50F0008E50F0008E50F0008E50F0008CF
:10014000E50F0008E50F0008E50F0008E50F0008BF
:10015000E50F0008E50F0008E50F0008E50F0008AF
:10016000E50F0008E50F0008E50F0008E50F00089F
:10017000E50F0008E50F0008E50F0008000000008B
:10018000E50F0008E50F0008E50F0008E50F00087F
:10019000E50F0008E50F0008E50F0008E50F00086F
:0C01A0007D300008E50F000889300008E1
:1001B00010B5054C237833B9044B13B10448AFF3A1
:1001C00000800123237010BDE00400200000000027
:1001D000B471020808B5034B1BB103490348AFF3E0
:1001E000008008BD00000000E4040020B471020893
:1001F00001F0FF01102A2BDB10F0070F08D010F8D8
:10020000013B013A8B422DD010F0070F42B3F6D1DB
:10021000F0B441EA012141EA014122F007047FF0F4
:1002200000070023F0E80256083C85EA010586EA4B
:10023000010685FA47F5A3FA87F586FA47F6A5FA87
:1002400087F68EB9EED1F0BC01F0FF0102F0070293
:1002500032B110F8013B013A83EA010313B1F8D13E
:100260000020704701387047002D06BF354603381F
:10027000073815F0010F07D1013015F4807F02BF58
:10028000013015F4C03F0130F0BC0138704700BFA9
:10029000034613F8012B002AFBD1181A01387047C6
:1002A00081F0004102E000BF83F0004330B54FEA27
:1002B00041044FEA430594EA050F08BF90EA020F94
:1002C0001FBF54EA000C55EA020C7FEA645C7FEA27
:1002D000655C00F0E2804FEA5454D4EB5555B8BF4A
:1002E0006D420CDD2C4480EA020281EA030382EABB
:1002F000000083EA010180EA020281EA0303362D4D
:1003000088BF30BD11F0004F4FEA01314FF4801C1F
:100310004CEA113102D0404261EB410113F0004F31
:100320004FEA03334CEA133302D0524263EB4303E8
:1003300094EA050F00F0A780A4F10104D5F1200E86
:100340000DDB02FA0EFC22FA05F2801841F10001E1
:1003500003FA0EF2801843FA05F359410EE0A5F1B5
:1003600020050EF1200E012A03FA0EFC28BF4CF0E6
:10037000020C43FA05F3C01851EBE37101F000459C
:1003800007D54FF0000EDCF1000C7EEB00006EEBA9
:100390000101B1F5801F1BD3B1F5001F0CD3490833
:1003A0005FEA30004FEA3C0C04F101044FEA44528A
:1003B00012F5800F80F09A80BCF1004F08BF5FEA11
:1003C000500C50F1000041EB045141EA050130BDF1
:1003D0005FEA4C0C404141EB0101013C28BFB1F503
:1003E000801FE9D291F0000F04BF01460020B1FA4E
:1003F00081F308BF2033A3F10B03B3F120020CDA21
:100400000C3208DD02F1140CC2F10C0201FA0CF0FE
:1004100021FA02F10CE002F11402D8BFC2F1200C63
:1004200001FA02F120FA0CFCDCBF41EA0C01904019
:10043000E41AA2BF01EB0451294330BD6FEA040462
:100440001F3C1CDA0C340EDC04F11404C4F120024D
:1004500020FA04F001FA02F340EA030021FA04F35F
:1004600045EA030130BDC4F10C04C4F1200220FAB6
:1004700002F001FA04F340EA0300294630BD21FAF4
:1004800004F0294630BD94F0000F83F4801306BFBA
:1004900081F480110134013D4EE77FEA645C18BFAE
:1004A0007FEA655C29D094EA050F08BF90EA020F45
:1004B00005D054EA000C04BF1946104630BD91EA3D
:1004C000030F1EBF0021002030BD5FEA545C05D140
:1004D0004000494128BF41F0004130BD14F580047F
:1004E0003CBF01F5801130BD01F0004545F0FE41F3
:1004F00041F470014FF0000030BD7FEA645C1ABF28
:10050000194610467FEA655C1CBF0B46024650EA5E
:10051000013406BF52EA033591EA030F41F400218A
:1005200030BD00BF90F0000F04BF0021704730B510
:100530004FF4806404F132044FF000054FF00001E5
:1005400050E700BF90F0000F04BF0021704730B5A6
:100550004FF4806404F1320410F0004548BF40427B
:100560004FF000013EE700BF42004FEAE2014FEAD0
:1005700031014FEA02701FBF12F07F4393F07F4FAB
:1005800081F06051704732F07F4208BF704793F0AE
:100590007F4F04BF41F40021704730B54FF46074C1
:1005A00001F0004521F000411CE700BF50EA0102C4
:1005B00008BF704730B54FF000050AE050EA01026D
:1005C00008BF704730B511F0004502D5404261EBDD
:1005D00041014FF4806404F132045FEA915C3FF41E
:1005E000D8AE4FF003025FEADC0C18BF03325FEABB
:1005F000DC0C18BF033202EBDC02C2F1200300FA6C
:1006000003FC20FA02F001FA03FE40EA0E0021FA90
:1006100002F11444BDE600BF70B54FF0FF0C4CF47E
:10062000E06C1CEA11541DBF1CEA135594EA0C0F30
:1006300095EA0C0F00F0DEF82C4481EA030621EA6B
:100640004C5123EA4C5350EA013518BF52EA0335A6
:1006500041F4801143F4801338D0A0FB02CE4FF058
:100660000005E1FB02E506F00042E0FB03E54FF088
:100670000006E1FB03569CF0000F18BF4EF0010E80
:10068000A4F1FF04B6F5007F64F5407404D25FEA7C
:100690004E0E6D4146EB060642EAC62141EA55512F
:1006A0004FEAC52040EA5E504FEACE2EB4F1FD0C71
:1006B00088BFBCF5E06F1ED8BEF1004F08BF5FEAEF
:1006C000500E50F1000041EB045170BD06F00046A1
:1006D00046EA010140EA020081EA0301B4EB5C044E
:1006E000C2BFD4EB0C0541EA045170BD41F4801146
:1006F0004FF0000E013C00F3AB8014F1360FDEBF6B
:10070000002001F0004170BDC4F10004203C35DA46
:100710000C341BDC04F11404C4F1200500FA05F3C9
:1007200020FA04F001FA05F240EA020001F000426A
:1007300021F0004110EBD37021FA04F642EB0601E0
:100740005EEA430E08BF20EAD37070BDC4F10C040A
:10075000C4F1200500FA04F320FA05F001FA04F2CE
:1007600040EA020001F0004110EBD37041F10001BA
:100770005EEA430E08BF20EAD37070BDC4F12005C5
:1007800000FA05F24EEA020E20FA04F301FA05F22D
:1007900043EA020321FA04F001F0004121FA04F2D5
:1007A00020EA020000EBD3705EEA430E08BF20EAA5
:1007B000D37070BD94F0000F0FD101F000464000DF
:1007C00041EB010111F4801F08BF013CF7D041EA61
:1007D000060195F0000F18BF704703F00046520065
:1007E00043EB030313F4801F08BF013DF7D043EA36
:1007F0000603704794EA0C0F0CEA135518BF95EAEC
:100800000C0F0CD050EA410618BF52EA4306D1D172
:1008100081EA030101F000414FF0000070BD50EA91
:10082000410606BF1046194652EA430619D094EA1B
:100830000C0F02D150EA013613D195EA0C0F05D105
:1008400052EA03361CBF104619460AD181EA030159
:1008500001F0004141F0FE4141F470014FF0000011
:1008600070BD41F0FE4141F4780170BD70B54FF0AC
:10087000FF0C4CF4E06C1CEA11541DBF1CEA13552C
:1008800094EA0C0F95EA0C0F00F0A7F8A4EB05040E
:1008900081EA030E52EA03354FEA013100F0888005
:1008A0004FEA03334FF0805545EA131343EA1263CE
:1008B0004FEA022245EA111545EA10654FEA002683
:1008C0000EF000419D4208BF964244F1FD0404F53C
:1008D000407402D25B084FEA3202B61A65EB030598
:1008E0005B084FEA32024FF480104FF4002CB6EB55
:1008F000020E75EB030E22BFB61A754640EA0C00D5
:100900005B084FEA3202B6EB020E75EB030E22BF14
:10091000B61A754640EA5C005B084FEA3202B6EB55
:10092000020E75EB030E22BFB61A754640EA9C0014
:100930005B084FEA3202B6EB020E75EB030E22BFE4
:10094000B61A754640EADC0055EA060E18D04FEAA2
:10095000051545EA16754FEA06164FEAC30343EA42
:1009600052734FEAC2025FEA1C1CC0D111F4801F0F
:100970000BD141EA00014FF000004FF0004CB6E708
:1009800011F4801F04BF01430020B4F1FD0C88BFA7
:10099000BCF5E06F3FF6AFAEB5EB030C04BFB6EBB2
:1009A000020C5FEA500C50F1000041EB045170BDA5
:1009B0000EF0004E4EEA113114EB5C04C2BFD4EBD2
:1009C0000C0541EA045170BD41F480114FF0000E56
:1009D000013C90E645EA060E8DE60CEA135594EAD2
:1009E0000C0F08BF95EA0C0F3FF43BAF94EA0C0FD5
:1009F0000AD150EA01347FF434AF95EA0C0F7FF44A
:100A000025AF104619462CE795EA0C0F06D152EA9D
:100A100003353FF4FDAE1046194622E750EA410681
:100A200018BF52EA43067FF4C5AE50EA41047FF492
:100A30000DAF52EA43057FF4EBAE12E74FF0FF3CF7
:100A400006E000BF4FF0010C02E000BF4FF0010CC8
:100A50004DF804CD4FEA410C7FEA6C5C4FEA430C41
:100A600018BF7FEA6C5C1BD001B050EA410C0CBF90
:100A700052EA430C91EA030F02BF90EA020F0020F2
:100A8000704710F1000F91EA030F58BF994208BF59
:100A900090422CBFD8176FEAE37040F00100704716
:100AA0004FEA410C7FEA6C5C02D150EA013C07D16D
:100AB0004FEA430C7FEA6C5CD6D152EA033CD3D0B8
:100AC0005DF8040B704700BF8446104662468C46B2
:100AD0001946634600E000BF01B5FFF7B7FF0028E5
:100AE00048BF10F1000F01BD4DF808EDFFF7F4FF0E
:100AF0000CBF012000205DF808FB00BF4DF808ED99
:100B0000FFF7EAFF34BF012000205DF808FB00BFBB
:100B10004DF808EDFFF7E0FF94BF012000205DF8DD
:100B200008FB00BF4DF808EDFFF7CEFF94BF012092
:100B300000205DF808FB00BF4DF808EDFFF7C4FF8B
:100B400034BF012000205DF808FB00BF4FEA410CD4
:100B50007FEA6C5C02D150EA013C0AD14FEA430CB7
:100B60007FEA6C5C02D152EA033C02D14FF00000F4
:100B700070474FF0010070474FEA410212F5001232
:100B800015D211D56FF47873B3EB625212D94FEAD4
:100B9000C12343F0004343EA505311F0004F23FABE
:100BA00002F018BF404270474FF00000704750EA13
:100BB000013005D111F0004008BF6FF000407047D0
:100BC0004FF00000704700BF7BB972B90029BEBF6B
:100BD00000204FF0004106E008BF00281CBF6FF066
:100BE00000414FF0FF3000F0D3B9ADF1080C6DE9D2
:100BF00004CE002909DB002B1ADB00F04DF8DDF8EC
:100C000004E0DDE9022304B07047404261EB41019A
:100C1000002B1BDB00F040F8DDF804E0DDE90223E7
:100C200004B0404261EB4101524263EB4303704721
:100C3000524263EB430300F02FF8DDF804E0DDE9F6
:100C4000022304B0404261EB41017047524263EB22
:100C5000430300F021F8DDF804E0DDE9022304B0ED
:100C6000524263EB4303704753B94AB9002908BFA6
:100C700000281CBF4FF0FF314FF0FF3000F088B963
:100C8000ADF1080C6DE904CE00F006F8DDF804E0E3
:100C9000DDE9022304B070472DE9F047089D8E4638
:100CA00004468846002B4AD18A42174662D9B2FAD6
:100CB00082F64EB1C6F1200301FA06F820FA03F3DA
:100CC000B74043EA0808B4404FEA174E1FFA87FCC2
:100CD000B8FBFEF1230C0EFB118843EA084301FB2D
:100CE0000CF29A4209D9FB1801F1FF3080F0EA803A
:100CF0009A4240F2E78002393B449A1AA3B2B2FB0F
:100D0000FEF00EFB102243EA024300FB0CFC9C4564
:100D100009D9FB1800F1FF3280F0D6809C4540F2E3
:100D2000D3803B44023840EA0140A3EB0C0300218E
:100D30001DB1F3400022C5E90032BDE8F0878B42C7
:100D400005D90DB1C5E9000100210846F5E7B3FA60
:100D500083F1002946D1734502D3824200F2058116
:100D6000841A6EEB030201209046002DE5D0C5E900
:100D70000048E2E7002A00F09080B2FA82F6002EE6
:100D800040F0A4808A1A030C4FEA174E80B2BCB21E
:100D90000121B2FBFEFC0EFB1C2243EA024304FBD2
:100DA0000CF29A4207D9FB180CF1FF3802D29A4292
:100DB00000F2E080C4469B1AB3FBFEF20EFB123336
:100DC00040EA034302FB04F49C4207D9FB1802F1FA
:100DD000FF3002D29C4200F2CA8002461B1B42EA4C
:100DE0000C40A5E7C1F120068B4022FA06F71F430D
:100DF0000EFA01F420FA06F32EFA06FE4FEA17491E
:100E0000234300FA01F81FFA87FCBEFBF9F01C0C23
:100E100009FB10EE44EA0E4400FB0CFEA64502FA64
:100E200001F209D93C1900F1FF3A80F09C80A645F7
:100E300040F2998002383C44A4EB0E041FFA83FE72
:100E4000B4FBF9F309FB13444EEA044403FB0CFC26
:100E5000A44508D93C1903F1FF3E80F08280A445E7
:100E60007FD9023B3C4443EA0040A4EB0C04A0FBC6
:100E700002EC64457346E14662D35FD05DB1B8EBE6
:100E8000030264EB090404FA06F622FA01F31E4396
:100E9000CC40C5E9006400214FE7B1FBF2FC010C36
:100EA00041EA0E4180B240EA01423B4638463C46A8
:100EB000B846BE462026B1FBF7F1A2EB080241EA94
:100EC0000C4166E7014618E710462CE7C6F1200200
:100ED0002EFA02F3B740B14020FA02F24FEA174E61
:100EE0000A43B3FBFEF8BCB20EFB1833110C41EA07
:100EF000034108FB04F9B04089454FEA104380B232
:100F00003ED9791808F1FF3C01D289451FD8A1EBE1
:100F10000901B1FBFEF909FB04F80EFB191192B2AD
:100F200042EA0142424529D2BA1809F1FF31C4D23E
:100F30004245C2D2A9F102013A44BEE7F0459DD232
:100F4000BEEB02036CEB070C0138E14696E7A7EB1A
:100F500009094944A8F1020CB1FBFEF909FB04F8A8
:100F6000DBE773467FE7504666E70846FDE63B440D
:100F7000023A33E7ACF1020C3B441CE749469CE7DC
:100F8000A1EB0901C446B1FBFEF909FB04F8C4E773
:100F9000704700BFDFF834D0002103E00C4B5B58F2
:100FA000435004310B480C4B42189A42F6D30B4A7B
:100FB00002E0002342F8043B094B9A42F9D304F0C3
:100FC000FBFD24F067F901F0E7F97047000003200A
:100FD0007442090800000020D0020020E004002034
:100FE0003C380120FEE7704708B500F0BBFDBDE8C6
:100FF000084000F03FBD00F0B7BD704710B50421B8
:10100000044622F0CBFA204610BD000038B50C4B48
:101010000C4C18800C4B822019806368984740F66E
:10102000110398420AD1094D23682C608220984709
:101030002B688220DB689847002038BD0120FCE740
:10104000060500204C0000200405002008050020B3
:101050004FF4A071F020FFF7D9BF0000F7B5394D6C
:101060002B6804461B6982209847208000284ED0B8
:101070002B680DF106025B6901A982209847324B6B
:101080001B78002B4BD0BDF8062040F674639A42C3
:101090003FD9ADF80630BDF806209B1A9BB20A2B4B
:1010A00042D90B22B3FBF2F3284A1288934201D9AA
:1010B000013A93B2BDF80420254840F6B8318A427F
:1010C00034D8C2F571620E32016892B20F25B2FBBC
:1010D000F5F2204D2D88AA4284BF05F1FF35AAB252
:1010E0008A4215468EB22AD9921B91B21A4E37689F
:1010F000BB42BAB28CBF9A1AD21A92B211440529D5
:10110000C4BF05603360036863803368A38003B0A5
:10111000F0BDB32A9CBFB422ADF80620BBE7BDF8F2
:101120000630A3F5B473B9E70023C3E7C2F56D62D7
:10113000083292B20E2A0168C8D800252A46891AB8
:1011400089B2D3E708050020D0190020040500204B
:101150000005002006050020FC04002037B5684685
:101160000D461446FFF77AFFBDF8000030B1BDF818
:1011700002302B60BDF804302360012003B030BD85
:10118000032821D8DFE800F0020B12190F4B1A6870
:10119000B2FA82F2520904210D4804F0A1BF0B4BB0
:1011A0005A68B2FA82F252090821F5E7074B9A68A9
:1011B000B2FA82F252091021EEE7044BDA68B2FA71
:1011C00082F252092021E7E7704700BF0C0500209A
:1011D00000100240032821D8DFE800F0020B1219AA
:1011E0000F4B1A68003A18BF012204210D4804F081
:1011F00077BF0B4B5A68003A18BF01220821F5E768
:10120000074B9A68003A18BF01221021EEE7044B01
:10121000DA68003A18BF01222021E7E7704700BFD3
:101220000C0500200010024003280DD8DFE800F074
:101230000206080A0421054804F057BF0821FAE70E
:101240001021F8E72021F6E7704700BF00100240A8
:1012500008B5032811D8DFE800F0020A0C0E0421BB
:10126000074804F037FF431E5842584108BD082183
:10127000F6E71021F4E72021F2E70020F3E700BFB2
:101280000010024070B5084D00240126E0B2FFF7BF
:10129000DFFF18B12B68012B18BF2E600134052C1D
:1012A00005F10405F2D170BD0C050020012380F882
:1012B000781080F879307047704700207047000040
:1012C000034B4164003918BF01211970704700BFFA
:1012D000FB2A0120704700207047836B0BB1084642
:1012E000184770474FF6FF707047406803689B6966
:1012F00018477047704770477047704710B50446ED
:1013000000F048FD23680349D3F890302046BDE83B
:1013100010401847000000D008B503680446D3F811
:101320008430984723682046DB6F984700F0ECF83C
:10133000236820465B6F9847292001F051FB00F09D
:10134000E3F8236820465B6F9847F8E710B504463A
:101350000AF064FA23682046D3F8BC30BDE8104098
:10136000184700F0FBBC00F0FFBC00F031BD00F0FE
:10137000D1BC00F041BD00F049BD00F0D5BC09F082
:101380007BBC10B58421044622F008F9204610BD2C
:1013900010B590F8341090F878400C4B8C421A78C5
:1013A00009D03AB90A4A0B491488088810800C8081
:1013B00001221A7010BD002AFCD0054A0549148884
:1013C000088810800C800022F3E700BFF42A012077
:1013D000F02A0120F22A012070B50D46194635B9D0
:1013E000094B0A4A0A4840F2FF2123F013F8C0E9EA
:1013F0000F52084B003A18BF01221A700368BDE86B
:101400007040D3F8903018472872020860720208C2
:10141000AE720208FA2A012008B5094B1B888B42DC
:1014200003D8084B1B88934205D9074B074A084845
:10143000A32122F0EFFF074B1980074B1A8008BD4C
:10144000F02A0120F22A0120F372020856730208E2
:10145000AE720208F62A0120F82A0120034690F80D
:101460007A0018B1586803681B6818477047000075
:10147000012108B50022084607F010F80A4B186051
:1014800028B90A4B0A4A28210A4822F0C3FF002241
:101490000421012007F0AAF8074B186018B9074B80
:1014A000034A2C21F0E708BD2005002099730208AB
:1014B000E2730208117402081C0500205974020826
:1014C000024B4FF0FF31186807F032B820050020BA
:1014D000014B186807F058B820050020024B002186
:1014E000186807F025B800BF20050020FFF7F0BFFF
:1014F00003480449006800231A4607F0B2B800BF49
:101500001C0500200400002013B5084C00231A46D7
:1015100001A9206807F0D6F820684FF0FF330022B9
:1015200001A907F0CFF802B010BD00BF1C050020D4
:1015300003685B6C18470120704703689B6A184773
:10154000FEE740F2EF307047054B0360054B4FF06C
:101550008062C3F88820BFF34F8FBFF36F8F70474F
:101560003C83020800E100E010B504464FF45A61E4
:10157000FFF7EAFF204622F011F8204610BD0000D8
:1015800082B0002301930E4B1A6B42F400021A63DF
:101590001A6B02F400020192019A1A6942F40002E5
:1015A0001A611A6922F400021A61064B064A1A618E
:1015B000064A5A61064B4FF080629A6002B070474B
:1015C000003802401C1C00202118000841150008AA
:1015D00000E100E008B50A2809D8DFE800F00610AD
:1015E0000E080808081010101000022008BD054B56
:1015F000054A0648902122F00DFF0020F6E7012061
:10160000F4E700BF9B740208B67402080175020873
:1016100038B50C46887FFFF7DDFFA58AE28A164BB6
:101620002169586342EA05425A64628BD963521BAE
:101630001A642568082D0ED19A611A615862207FBC
:101640000E4A42EA0062DA61E2681A620C4A5961A3
:10165000D9601A6038BD0022D8611A61E1680A0AAF
:10166000480902F4784200F4FC600243C1F3C4016B
:101670000A439A63034AECE700B002400900010004
:10168000012302000123030008B50B280BD8DFE873
:1016900000F00612100A0A0A0A08080808080220C0
:1016A00008BD0520FCE7054B054A06486F2122F0DE
:1016B000B1FE0020F4E70120F2E700BF9B740208AE
:1016C00047750208017502082DE9F04191F81D8067
:1016D0000C464046FFF7D8FFA77F05463846FFF780
:1016E000D3FF06463846FFF775FFA18A628B444B4D
:1016F000521A1A649A61228B521A1A61E28A58634A
:1017000042EA01425A6421696268D963DA6020685A
:10171000802828D0227F0FD8202867D0402865D085
:1017200004281AD0364B45EA026545F40035B84521
:10173000DD6161D0334A44E0B0F5807F04D0B0F57C
:10174000007FEFD1304800E0304840EA0262DA61C1
:10175000E2681A625E62596132E045EA026242F46E
:101760000032DA61F6E7A068021DDA62227F45EAFC
:10177000026545F40035DD615E625961017841B171
:10178000012921D0224B234A23484FF48D7122F0A6
:1017900041FEDA69418822F47F42013922F01002C9
:1017A00042EA0122DA610121154BDA6942F0200296
:1017B000DA61DA699206FCD410229A600029B9D065
:1017C000164A1A60BDE8F081B2F1FF01DA6940887B
:1017D00022F47F4200F1FF3022F0100242EA0022A0
:1017E00042F0100218BF0121DA61DDE745EA02622A
:1017F000034B42F40032B4E742F20132E1E700BFAA
:1018000000B0024001230100090002000A000200AA
:1018100091750208AB7502080175020801230200E8
:10182000024B1B68586803685B691847FC2A012053
:1018300070B5044625460A4B0C30002660602672BF
:10184000667245F8203B602229460AF03DF904F50E
:101850005A63EE6024359D42FBD1204670BD00BF27
:101860003C830208034B1A68D207FCD423229A60F7
:10187000704700BF00B002407047000030B50F4C09
:101880002568ED07FCD423250904A56041F001017A
:101890000225FF2B65636164E0630AD00849656235
:1018A00041EA0363E361074B22626061E060236009
:1018B00030BDE561039BA363034BF8E700B0024032
:1018C00009000100010002000100030030B50E4CC8
:1018D0002568ED07FCD423251204A56042F001021F
:1018E0000225FF2B65636264E063E16008D01B069C
:1018F00043F00213E361054B65626061236030BD14
:10190000034BE3610123F9E700B00240010002004C
:10191000020002FF30B50B4C2568ED07FCD42325EF
:1019200012041B06A56043F40033022542F00102B5
:1019300065636264E063E160E361034B656260617B
:10194000236030BD00B0024001000200012070475A
:101950000C2070470C2303FB0100083070470C2358
:1019600003FB010008307047012070474FF45170AD
:1019700070474FF4517303FB0100083070474FF478
:10198000517303FB0100083070470120704710209D
:10199000704700EB01100830704700EB0110083071
:1019A0007047084601F0E2BF10B5034B03600446E0
:1019B00008F0B9FE204610BDF483020810B50446B5
:1019C000FFF7F2FF2046142121F0E8FD204610BD6C
:1019D00010B5034B0360044608F0A5FE204610BD79
:1019E000C083020810B50446FFF7F2FF20464FF40B
:1019F000537121F0D3FD204610BD000010B5034BFC
:101A00000360044608F08FFE204610BD8C83020858
:101A100010B50446FFF7F2FF2046182121F0BEFD65
:101A2000204610BD10B5084B0360044600F55E70FB
:101A3000FFF7BAFF04F12C00FFF7CAFF04F114000E
:101A4000FFF7DCFF204610BD2884020808B50248D5
:101A5000FFF7E8FF08BD00BFFC13002010B50446E7
:101A6000FFF7E0FF20464FF49E6121F097FD2046EE
:101A700010BD00002DE9F34101F014FD054601F011
:101A800015FD00240146234628462246009412F004
:101A9000D3FC274B274A1A60204602F00BFF264D45
:101AA000264B274A27489A6012F02EFC2B68BFF37A
:101AB0005B8FDB0735D4284621F072FD88B3224CBA
:101AC000224B236004F5657604F1140004F12C0820
:101AD00004F55E776060C4F80880E760266108F06E
:101AE00023FE1B4B6361404608F01EFE194BE36268
:101AF000384608F019FE184BC4F8783304F56370C3
:101B000003F0A2FC224604F56371304603F0FCFBAF
:101B1000304601F02BFF114822F09AFC284621F0B4
:101B20004BFD0F4802B0BDE8F041FFF7E7BB00BF37
:101B3000602B0120A8050020F8130020C805002014
:101B4000AC05002008000020FC13002028840208B7
:101B50008C830208C0830208F48302084D1A00082F
:101B600024050020704700000148FFF7D5BB00BFE7
:101B70002405002070B5264E264C274D274B2360A8
:101B80003046FFF755FE284617F05CFD244810F05C
:101B900063F9244B2448DC6000224FF48071C3E9D0
:101BA000121222491A86C3E91A12214983F85820D1
:101BB000C3E91E011F49C3F880101F491F480B606D
:101BC000F021C3E90422C3E90622C3E90822C3E9DC
:101BD0000A22C3E90E22C3E91022C3E91422C3E991
:101BE00017225A6683F870205A67C3E9016501809D
:101BF0001348018013484FF4A071018012480180FE
:101C000012490A70012283F83420114A1A6070BD0B
:101C100054060020F4130020C805002018720208A2
:101C2000AC05002024050020000001010100000196
:101C3000000450001A001400FC2A0120F02A0120A0
:101C4000F62A0120F22A0120F82A0120F42A012094
:101C5000508202080148FFF777BC00BF54060020FD
:101C60000020704781807047C180704701817047B4
:101C7000418170477047704770477047704710B494
:101C8000C4880368121B84885B6D091B12B25DF85F
:101C9000044B09B218474FF6FF7383814FF0FF33AF
:101CA00003621368C36110607047002070478B881F
:101CB000838001207047704780F82610704790F8A5
:101CC0002600704710B50022B1F90840B1F90A109A
:101CD000028042808480C18010BD00220280428048
:101CE0008280C28070470177704780ED080A704794
:101CF00080F82410704780F8251070470120704745
:101D0000983070478C307047843070477047704708
:101D100070470000034B902283F85A2383F858231E
:101D2000704700BF00E100E0094A0A49D3680A4849
:101D3000C3F30A03013B9BB20B801169C1F30A0193
:101D4000013901801364536B43F0010353637047FF
:101D500000680140EE180020EC180020014BD3F879
:101D6000AC00704700680140024B0122C3F8AC1080
:101D70005A6270470068014010B52C21044621F0DA
:101D80000DFC204610BD10B5BC21044621F006FC18
:101D9000204610BD70B5044608F0C3FF23689D6E51
:101DA0000EF0F2FD01462046A8472368054AD3F805
:101DB0008C502046AC460023BDE87040A2F5163199
:101DC000604700BF00B004D008F092BF08F09CBF8D
:101DD00008F058BF09F0C7B890F8252012B1036881
:101DE0005B691847704790F825201AB190F82420B5
:101DF00002B1186070470000034B4FF080629A6098
:101E00004FF080729A60704700E100E0084B4FF09D
:101E10008062C3F88820BFF34F8FBFF36F8F4FF0FE
:101E20008072C3F88820BFF34F8FBFF36F8F704766
:101E300000E100E070B50023124E8380124B036076
:101E4000336893F8582005460AB1D86C00B99868F1
:101E50000368DB6A98473368B0FA80F4D86C640989
:101E600030B10368DB6A9847002808BF44F00104DA
:101E70002CB9064B064A07482C2122F0CBFA2846FB
:101E800070BD00BFFC2A01203C840208E9750208ED
:101E9000477602088076020870B5254E3568BFF394
:101EA0005B8F15F0010540D1304621F079FB002809
:101EB0003BD0204C204B256104F13400C4E90035AF
:101EC000C4E90255E584A562A58510F0AAFA04F1DB
:101ED00058000BF0ADFA194BA3652046184B40F89B
:101EE000843BFFF7A7FF174BC4F884302433C4F8B2
:101EF0008C304FF4C803C4E928350023C4F8AC3053
:101F0000C4F8B030C4F8B430C4F8B8300E480F4B41
:101F1000C4F89050C4F89C50C4F8A850C4F8983045
:101F200022F096FA304621F047FB024870BD00BF10
:101F3000F0180020F4180020549002085C84020875
:101F4000D484020808900208111D0008E88F0208D6
:101F500038B5184C23685BB3174B184A1B6C1188B3
:101F60008B4216D1164B198804F0C2FE236893F8F1
:101F70006A200025013283F86A2083F87C50FFF73D
:101F8000B7FA206809F04AFC2846BDE83840FFF758
:101F9000F7B804F0ADFE2468236820461B6A984712
:101FA000012384F87C300020BDE83840FFF712B9E7
:101FB00038BD00BFFC2A012000680140EE18002057
:101FC000EC180020282300BF00BF00BF00BF013B6A
:101FD000F9D1704710B50446237D13B90123237549
:101FE00010BD012006F04EFAF6E770B5044603F086
:101FF00017FE05466189606804F06CF801282DD051
:102000001826002521892068012204F069F8FFF7CD
:10201000D9FF00222189206804F062F8FFF7D2FF7F
:102020006189606804F056F86D00012806F1FF36FA
:1020300008BF013516F0FF06E4D12189206801228E
:1020400004F04EF8FFF7BEFF32462068218904F005
:1020500047F8FFF7B7FF85F4000070BD06F012FAED
:1020600003F0DEFD401B9628C4D90020F5E72DE9DA
:10207000F04F87B004461E4690460F46BDF840A07C
:102080000025FFF7A7FF4FF001094FF0020B01A950
:1020900038462760A4F808806660A4F80AA0039573
:1020A0000595CDF80890CDF810B0CDF8048003F078
:1020B0002DFF01A93046CDE90259CDF810B0CDF879
:1020C00004A003F023FF218920684A4604F008F8A1
:1020D0000A2006F0D7F9218920682A4604F000F882
:1020E0000A2006F0CFF92046FFF77FFF2046FFF7D2
:1020F0007CFF257507B0BDE8F08F2DE9F04106465D
:102100008846FFF767FF00252C462F4645450CD132
:102110004FF000082A46434620463946FEF754FD54
:1021200086F81480F060BDE8F0813046FFF75DFF6F
:10213000041947EBE077052006F0A4F90135E5E73F
:102140002DE9F04104460F46FFF744FF00263546CF
:10215000B046B74213D1002633463A462846414698
:10216000FEF732FDE3682675C01A07EE900AB8EE56
:10217000E70AD4ED047A80EE270ABDE8F081204614
:10218000FFF733FF451948EBE078052006F07AF9B0
:102190000136DEE780ED040A7047FEE707B5064B1F
:1021A000ADF806001B68054801220DF1060105F097
:1021B0004FFB03B05DF804FB0C000020701A0020F8
:1021C0001FB50023039310230093144B1448144E9F
:1021D000144C154D19462022FFF749FF9FED130AB5
:1021E0000F48FFF7D7FF0E480A21FFF786FF0A21A5
:1021F0003046FFF7A5FF002320688DED030A1A463D
:1022000003A906F02EFA286820B100231A4603A974
:1022100006F027FAC82006F035F9E8E7000C02407E
:10222000B8190020D4190020D81900200010A446A5
:1022300000B5144C144D154E8DB020684FF0FF338F
:10224000002203A906F03EFA98B90398FEF78CF92C
:102250002A46CDE90001202104A822F0F5FE04A8B9
:10226000FEF716F84FF0FF3382B204A9304605F0AE
:1022700088FF07484FF4804103F037FFC82006F07D
:1022800001F9DAE7D4190020E2760208281A0020C2
:102290000018024007B5684601F0D3F840B9054878
:1022A0004FF4804103F021FF012003B05DF804FBEF
:1022B0000020FAE70018024007B50D4C0D4D0E4EF8
:1022C000FFF7E8FF80B141238DF8073000231A465D
:1022D0000DF10701206806F0C4F901234FF4804195
:1022E00030462B7003F001FF642006F0CBF8E7E7DF
:1022F000DC190020B41900200018024030B595B058
:10230000102200210AA822F018FF1422002103A89D
:1023100022F013FF00241E4B01941A6C42F08052ED
:102320001A641B6C03F080530193019B194B0294B8
:102330001A6842F440421A601B6803F44043029357
:102340000122029B4FF48033CDE9082302254FF48C
:1023500080030821CDE90E534FF4B473CDE9101377
:1023600008A804231393129504F01AFD04F0DEFC70
:102370000F23CDE903354FF4A0504FF48053CDE93E
:102380000603052103A8059404F0E6FE15B030BD50
:1023900000380240007000402DE980489BB003F0F7
:1023A00019FCFFF7ABFF142200210DA822F0C5FE97
:1023B0000024C84B00941A6BC748C84D42F0100265
:1023C0001A631A6B02F010020092009A01941A6BC1
:1023D00042F020021A631A6B02F020020192019A65
:1023E00002941A6B42F080021A631A6B02F08002A8
:1023F0000292029A03941A6B42F004021A631A6B57
:1024000002F004020392039A04941A6B42F0010250
:102410001A631A6B02F001020492049A05941A6B73
:1024200042F002021A631A6B02F002020592059A48
:1024300006941A6B42F040021A631A6B02F04002D3
:102440000692069A07941A6B42F008021A631B6BF5
:1024500003F00803224607933C21079B03F040FE4C
:102460009F480122022103F03BFE22469C480421A2
:1024700003F036FE22469B4843F2200103F030FE73
:10248000994801224FF4004103F02AFE2246974862
:102490004FF4804103F024FE01263C23CDE90D36A4
:1024A0008D480F9403230DA90227109303F02EFDEE
:1024B0008B480DA9CDE90D76CDE90F4403F026FD3B
:1024C000042387480DA9CDE90D36CDE90F4703F068
:1024D0001DFD4FF4815383480DA9CDE90D36CDE99B
:1024E0000F4703F013FD4FF400537E480DA9CDE9CB
:1024F0000D36CDE90F4403F009FD4FF400437A484F
:102500000DA9CDE90D36CDE90F474FF0100803F0C6
:10251000FDFC74480F960DA9CDE90D844FF4804958
:1025200003F0F4FC0DA97148CDE90D96CDE90F44F7
:1025300003F0ECFC6E486F4B036003F0DDFBDFF84B
:10254000D4C16D4B2C622846C5E900C3C5E904948B
:10255000C5E90244C5E9064403F0D0FF41462846D8
:1025600004F014FA2146284604F02FFA634DDFF8F0
:10257000A8E1AC624FF48273C5E900E34FF4007840
:102580001823C5E9068328460A23C5E90244C5E99C
:102590000444C5E90844EB6205F0FEF88F232246A7
:1025A00039464F488DF824308DF8344003F098FDBB
:1025B00032464FF47A7309A9284605F049F94FF4D9
:1025C0007A7332460DA9284605F0EEFA32463946AE
:1025D00043484B4D03F084FD9DF83430D32B04BFAA
:1025E000484B1E70484B0127C5E900374FF01009D2
:1025F00040230024C5E904934FF4C073C5E90634B1
:102600004FF40063C5E908344FF4005302264FF03D
:102610000408AB624FF0030B07230DA92846CDE950
:102620000D63CDE90F834FF0080AC5E90248CDE9F3
:1026300011B6139604F094FF4FF6FF7209A92846CD
:10264000CDE90AA7099708940C9404F0A9FF38462D
:1026500003F0ECFA4FF6FF7209A92846CDE9096AA2
:10266000CDE90B7404F09CFF4FF6FF7209A92846D0
:10267000CDE909BACDE90B8404F092FF4FF40C7355
:102680000893089B0C934FF6FF7209A92846CDE9E1
:10269000098A0B9704F084FF40F26A51284604F03F
:1026A0009DFF342221460DEB020022F046FD174D1E
:1026B000174B2C61C5E900340923C5E905371D23F3
:1026C000C5E9073B40F20D1240F24313C5E9092367
:1026D00024E000BF0038024000100240C81B002068
:1026E00000080240000C02400000024000180240B6
:1026F0005C1C002000300240A0860100701A0020FF
:10270000F4190020D0190020400100A0201B002057
:1027100000680140005C00400050014040F2171189
:1027200040F247132846C5E90B13C5E90244AC86BD
:1027300085F8364004F0E4F9FF21F022CDE91214C7
:102740004FF0050A4FF480614FF4A073CDE90E24D9
:10275000CDE9141ACDE916420DA922462846CDE945
:102760001036464D18930D94ADF864408DF86640D0
:1027700004F091FA424B2B601B6898472B68414D3F
:10278000DB689847404B2846C5E90034C5E9026438
:10279000C5E90A46C5E90C4403F0BEFA39462846A5
:1027A00003F070FB394D3A483A4F84624FF482731C
:1027B000C0E900534FF400730A25C0E90634C5622E
:1027C000C0E90244C0E90444C0E9084404F0E4FF5D
:1027D00031484FF4E133C0E900730C23C0E90534FC
:1027E000C0E902440461C46105F09CFCFEF7FCFBF7
:1027F000FEF7F9FB05F0B8FD3146284A284E484659
:1028000005F0F4FE274B284A18604146504605F073
:10281000EDFE264B264A18604146284605F0E6FEA6
:10282000244B254A186021462448254D05F0C8FD53
:10283000244B254A18602146244805F0C1FD244B4D
:10284000244A18602146244805F0BAFD234A306026
:102850002146234805F0B4FD224A2860214622483B
:1028600005F0AEFD214B1860306805F0EDFD2868DD
:1028700005F0EAFD05F08AFDFEE700BFB019002073
:10288000140000201C1C002000B00240003C00404E
:10289000C81A002000100140281A002048850208AC
:1028A000E8190020DC19002030850208D819002022
:1028B00018850208D4190020F08502089B21000821
:1028C000E4190020F0190020CC850208F70F000859
:1028D000EC190020A8850208C1210008848502089F
:1028E000B92200086085020831220008E0190020A2
:1028F000704770477FB5094B8DF817201B6802930E
:102900000DF117020123009201930A460146044883
:1029100003F09CFE07B05DF804FB00BF1000002030
:10292000C81B00207FB500238DF81730084B1B68AB
:1029300002930A4601230DF117010091019301460C
:10294000044803F013FF9DF8170007B05DF804FB7F
:1029500010000020C81B00201FB5084C24680092FE
:10296000CDE901340A4601230146054803F0FEFE85
:10297000003818BF012004B010BD00BF10000020B7
:10298000C81B002003F052B910B5064C00222046A7
:10299000042103F0A5FB20460122BDE810400421DC
:1029A00003F09EBB0008024038B50B4D04460122DF
:1029B0000A484FF4005103F093FB002204212846FB
:1029C00003F08EFB2046FFF7E9FB28460122BDE815
:1029D0003840042103F084BB00080240000C024090
:1029E00038B50B4D044600220A484FF4005103F05D
:1029F00077FB00220421284603F072FB2046FFF7F4
:102A0000CDFB28460122BDE83840042103F068BB15
:102A100000080240000C0240F7B5144E144F054662
:102A20000C4630460022042103F05AFB00224FF4EA
:102A30000051384603F054FB2846FFF7AFFB0D4B1F
:102A40000D481B68224601A905F0AEF83846012260
:102A50004FF40051019C03F043FB30460122042156
:102A600003F03EFB204603B0F0BD00BF000802406B
:102A7000000C02400C000020701A002003F0D6B8B1
:102A80000268034B9A4201D103F0BEB8704700BF01
:102A9000001000407047000082B00E4B00220092F0
:102AA000596C41F480415964596C01F480410091A2
:102AB00000990192196C41F0805119641B6C03F06C
:102AC00080530193019B0F216FF0010002B003F0CE
:102AD000D3B800BF003802400268094B9A4282B066
:102AE0000BD100230193074B1A6B42F480521A63F7
:102AF0001B6B03F480530193019B02B0704700BF2E
:102B0000003002400038024007B50F4B02689A427D
:102B100016D10022A3F5F0430192196B41F4000194
:102B200019631B6B03F40003019305215A20019BD9
:102B300003F0A2F85A2003B05DF804EB03F0CEB81E
:102B400003B05DF804FB00BF00B002402DE9F04384
:102B5000044689B01422002103A822F0EEFA22686C
:102B6000244B9A4243D1244C244800250095236BE2
:102B700043F004032363236B03F004030093009BDF
:102B80000195236B43F001032363236B03F00103DF
:102B90000193019B4FF012094FF400734FF00108AD
:102BA0000327042603A9CDE90339CDE90587079654
:102BB00003F0ACF94FF480731148079603A9CDE9EF
:102BC0000339CDE9058703F0A1F90295236C43F49D
:102BD00000032364236C03F400030293029B236A23
:102BE00043F400032362236A23F40003236209B041
:102BF000BDE8F083005C004000380240000802405D
:102C000000000240F0B599B004461422002107A844
:102C100022F093FA30220DEB0200002122F08DFA0F
:102C200022685E4B9A4240F0B78008230C93C02381
:102C30001093042312930CA84FF40033159304F05F
:102C400063FB08B1FFF726FF554B5648002400945C
:102C50005A6C42F080625A645A6C02F080620092B0
:102C6000009A01941A6B42F020021A631A6B02F068
:102C700020020192019A02941A6B42F001021A6337
:102C80001A6B02F001020292029A03941A6B42F04C
:102C900002021A631A6B02F002020392039A04946E
:102CA0001A6B42F040021A631A6B02F0400204925F
:102CB000049A05941A6B42F004021A631A6B02F02C
:102CC00004020592059A06941A6B42F008021A63F0
:102CD0001B6B03F00803069302250E26069B0B963A
:102CE0004FF4806307A9CDE90735CDE9094503F025
:102CF0000DF941F658032C480B9607A9CDE9073585
:102D00000927CDE9094503F001F9032327480B976B
:102D100007A9CDE90735CDE9094503F0F7F84FF4E8
:102D2000706322480B9607A9CDE90735CDE909451F
:102D300003F0ECF84FF40C631D480B9607A9CDE99E
:102D40000735CDE9094503F0E1F8C02319480B9692
:102D500007A9CDE90735CDE9094503F0D7F80823E0
:102D600015480B9607A9CDE90735CDE9094503F0CC
:102D7000CDF84FF4A0530E480B9707A9CDE90735BE
:102D8000CDE9094503F0C2F858202246052102F09A
:102D900073FF582002F0A2FF19B0F0BD0068014097
:102DA00000380240001402400000024000040240CB
:102DB0000018024000080240000C024010B5142226
:102DC0008AB0044600210DEB020022F0B6F9236818
:102DD000264A934224D1264B002101911A6C42F4D9
:102DE00000421A641A6C02F400420192019A0291A4
:102DF0001A6B42F004021A631B6B03F00403029384
:102E00004FF4E050029B0223CDE90503032406237F
:102E1000CDE90843174805A903F078F80AB010BDBA
:102E2000154A9342FAD1124B1448002103915A6C6F
:102E300042F480125A645A6C02F480120392039A8C
:102E400004911A6B42F020021A631B6B03F02003FB
:102E50000493049B4FF4607202230321CDE9052300
:102E60000523CDE9081305A9D6E700BF003C0040C3
:102E700000380240000802400050014000140240A7
:102E800010B5044688B01422002103A822F055F999
:102E90002268144B9A4223D103F594330021019107
:102EA0005A6C114842F010025A645A6C02F0100237
:102EB0000192019A02911A6B42F001021A631B6B94
:102EC00003F001030293029B4FF4C062022303212B
:102ED000CDE903230723CDE9061303A903F016F870
:102EE00008B010BD00100140000002402DE9F04183
:102EF00086B0002303932B4B1C68002C4FD14FF05E
:102F00000108C3F80080284B00949A6B274842EAD6
:102F100008029A639B6B03EA0803009302270326C7
:102F20000C25009B01A94FF63F03CDE90137CDE900
:102F3000046502F0EBFF1E48059501A9CDE9018764
:102F4000CDE9034602F0E2FF48F233131948059534
:102F500001A9CDE90137CDE9034602F0D7FF4FF6CD
:102F600083731548059501A9CDE90137CDE90346DD
:102F700002F0CCFF4CF203731048059501A9CDE98E
:102F80000137CDE9034602F0C1FF60230C480595E7
:102F900001A9CDE90137CDE9034602F0B7FF06B03C
:102FA000BDE8F081641C002000380240001402409B
:102FB000000802400018024000100240000C0240CD
:102FC0000004024070B588B000230293204B1A6CB5
:102FD00042F010021A641B6C03F0100302930546C2
:102FE00001A903A8029B04F071F9069B4BBB04F0F6
:102FF0004DF9184E184B336040F2E733F360174B2E
:10300000B0FBF3F3013B7360304600233361B360E0
:10301000B36104F09BFF044680B9304604F06CFEB7
:10302000044658B9362002F059FE0F2D0DD822461D
:103030002946362002F020FE094B1D60204608B0CC
:1030400070BD04F023F94000D3E70124F6E700BF88
:1030500000380240681C00200010004040420F0071
:103060007C0000207047FEE7FEE7FEE7FEE77047C2
:10307000014804F07FBE00BF681C0020014803F037
:10308000ADBD00BF201B0020014802F071BE00BF93
:103090001C1C00200120704708B522F0F5F816230B
:1030A00003604FF0FF3008BD08B522F0EDF816239D
:1030B0000360FEE770B50D4614460E46731B9C4236
:1030C00001DC204670BDAFF3008006F8010BF5E788
:1030D00070B50D4614460E46731B9C4201DC20461B
:1030E00070BD16F8010BAFF30080F5E74FF0FF302D
:1030F00070474FF400534B60002070470120704729
:10310000002070470A4A116808B5034609B9094901
:1031100011601068694603448B4206D922F0B4F866
:103120000C2303604FF0FF3008BD1360FCE700BFC5
:10313000B01C0020403801201FB504468DF8071050
:10314000154800224FF40041640002F0C9FF04F06A
:103150007E0412488DF80F400A2301220DF10F0161
:1031600004F076FB0D4804F0C3FD0228FAD00B48AA
:103170000A4C0A2301220DF1070104F069FB2046E5
:1031800004F0B6FD0228FAD0034801224FF40041B2
:1031900002F0A6FF04B010BD00000240C81A0020D3
:1031A00013B504466400174800224FF4004104F0B0
:1031B0007E0402F095FF64F07F0413488DF8074009
:1031C0000A2301220DF1070104F042FB0E4804F02E
:1031D0008FFD0228FAD00C480B4C0A2301220DF176
:1031E000060104F0E1FC204604F082FD0228FAD03A
:1031F000044801224FF4004102F072FF9DF80600DE
:1032000002B010BD00000240C81A002038B50446C4
:103210000D46FFF7C5FF40EA0501C9B22046BDE8EB
:103220003840FFF789BF38B504460D46FFF7B8FFB1
:1032300020EA0501C9B22046BDE83840FFF77CBF4F
:103240000C282DE9F84307460C4691461E4639D016
:103250000E283BD04FF00008454645F08001022083
:10326000FFF76AFF80210420FFF7DDFF80210A209D
:10327000FFF7CCFF00210120FFF75EFFA1444C4582
:1032800028D139460120FFF757FF0C2F03D18021A9
:103290000D20FFF7BBFF4FF4FA6448F0010804204B
:1032A000FFF77EFF013CA4B2814614B110EA080F7B
:1032B000F5D080210D20FFF7B6FF8CB902252846F6
:1032C000BDE8F8834FF030087725C6E74FF01008C7
:1032D0001225C2E714F8011B0920FFF72DFFCEE7E6
:1032E0000620FFF75DFF10F01B0FE7D105EA090587
:1032F0000C2F05F00105E2D10A20FFF751FF04462B
:103300003846FFF74DFF10F0070216BF04F1FF33F8
:10331000E20002EBC302102C28BF1024E4B2089B89
:1033200092B2012C1A8038BF012400270920FFF730
:1033300037FFF0550137BBB29C42F7D8BFE730B535
:103340000C4685B0054607210D20FFF7F5FE0DF16F
:103350000E03257001220093214623460C20FFF71F
:103360006FFF38B9BDF80E00103818BF01204000BB
:1033700005B030BD0220FBE71FB5044600210D203B
:10338000FFF7DAFE93232370202363700DF10E0301
:1033900000930222234621460C20FFF751FF60B91B
:1033A000631EE21C13F8011F48409A42C0B2F9D1D3
:1033B0002379181A18BF0120400004B010BD70B561
:1033C00004460D46052004211646FFF72CFF8021F8
:1033D0000A20FFF71BFF2544AC4216D10321012030
:1033E000FFF7AAFEFF240520013CFFF7D9FE14F0E9
:1033F000FF0401D04307F6D52220FFF7D1FE30703D
:103400002120FFF7CDFE707070BD14F8011B09205C
:10341000FFF792FEE0E71FB550230DF10E0203A85F
:103420000221ADF80C30FFF7CAFF0DF10A0300933B
:1034300003AB042219460C20FFF702FF05B05DF82C
:1034400004FB38B5014605462620FFF778FF044601
:1034500018B92846FFF790FF0446FFF7DCFF204627
:1034600038BD704710B50421044620F097F8204677
:1034700010BD08B5032913D8DFE801F002060A0ED3
:1034800001F064FA006808BD01F060FA4068FAE7EC
:1034900001F05CFA8068F6E701F058FAC068F2E7DC
:1034A0000020F0E700487047288602080720704790
:1034B00013B5002451B1036801948DF8034001AAAB
:1034C0009C680DF10303A04702B010BD0846FBE75E
:1034D000C0897047008A7047C088704780887047ED
:1034E000807A00F07F007047807AC0097047002022
:1034F000704700009FED010A704700BF0000000008
:103500007047704770477047704770477047704703
:1035100030B4C26844685510034604EB6200D20719
:1035200048BF62599B6830BC48BFD3581847034610
:10353000406830B19A681AB9D86800F00100704745
:103540000120704710B51021044620F027F82046CE
:1035500010BD10B54FF4C071044620F01FF820468E
:1035600010BD38B500F1E003994204460D4603D181
:103570000DF00AFA00F03AFA04F594739D4203D173
:103580000DF002FA00F002FA9834A54205D10DF0D0
:10359000FBF9BDE8384000F0E9B938BD70B5036803
:1035A00004461B6B154698472368294620465B6BEB
:1035B000BDE8704018470000F8B5194B018F1B8813
:1035C0008B4206462AD9174B1B682BB9164B174A54
:1035D00017486C2120F01EFF13F81120154B1B68B3
:1035E00053F82250144B186801F0A0F92B680746D5
:1035F0009B6B284698472B6804469B6C39462846A7
:1036000098472B6814FB00F45B6A394628469847B4
:10361000A4B223181BB2A6F84630F8BD0023FAE77F
:10362000582B0120542B0120517702089377020870
:10363000CE7702085C2B0120602B01202DE9F04F92
:10364000044685B00FF0A4F9684B2360684B002551
:10365000C4E910354FF48072FF2304F16C0AA4F81A
:10366000642084F86630A4F890204FF6FF73614A16
:10367000E266A4F8923084F8943003A904F1980922
:103680005046C4E91255C4E91455C4E91655C4E9B5
:103690001C55C4E91E55C4E92055C4E92255E5630B
:1036A0002566A566ADF80C3004F1E0080AF07EFC52
:1036B00048460AF0BDFD04F5947740460AF0B8FD8F
:1036C00038460AF0B5FD4C4BC4E95C344B4B04F171
:1036D000400B2A46C4E95E3529465846FFF75EFF8F
:1036E0005846F021FEF7C2FA58464FF4A071FEF793
:1036F000BFFA261D4FF07F43A3665946304607F0B8
:1037000025F82A4629465046FFF748FF03A95046A8
:10371000ADF80C500AF04AFC5146304607F016F856
:1037200029464846E422FFF739FF4FF0040B4FF0DB
:10373000050A03AA02A94846ADF808B0ADF80CA0E6
:103740000AF06DFA4846A4F8D0B0FFF735FF4FF005
:10375000FF33C4E9353304F5B873C4F8C0304946C3
:103760003046019306F0F2FF294640468722FFF7D4
:1037700015FF02A903AA4046ADF808B0ADF80CA0A9
:103780000AF04DFA0622A4F818214046FFF714FF6C
:103790004FF0FF33C4E94733019BC4F80831414679
:1037A000304606F0D3FF294638462E22FFF7F6FEB4
:1037B00003AA02A93846ADF808B0ADF80CA00AF08B
:1037C0002EFA3846A4F860A1FFF7F6FE4FF0FF335B
:1037D000C4E95933019BC4F850313046394606F0EC
:1037E000B5FF204605B0BDE8F08F00BFD4860208C3
:1037F000A891020878920208BC8602086335000886
:10380000704710B5082104461FF0C8FE204610BDC1
:103810007047704700F598730868496803C370479C
:10382000704770474160704770477047064BC0F85B
:103830004C310023C0F8503100F5A273C0F84801A4
:10384000C0F84031704700BF353F000801230372C4
:103850007047704710B4C26841685410034601EBCA
:103860006200D20748BF0A599B685DF8044B48BF05
:10387000D35818470346406830B19A681AB9D868D7
:1038800000F0010070470120704710B50C2104467C
:103890001FF084FE204610BD10B5102104461FF015
:1038A0007DFE204610BD10B54FF4AE7104461FF0EA
:1038B00075FE204610BD10B50DF066F80368BDE832
:1038C0001040DB6B184710B50446D0F8400158B1E2
:1038D0000368DB68984738B1D4F8400103689B68F7
:1038E00098470023C4F8403110BD0000044B1B680A
:1038F00093F858200AB1D86C00B99868704700BF97
:10390000FC2A0120F8B5174604460E460DF0FEF8D5
:10391000124B1C60124B2360124B0025C4E9513539
:10392000114BC4E953551868036801219B68C4E929
:103930004F55C4E955769847284600F0BBFFFFF77E
:10394000D5FF17F028FDFFF7D1FF17F09FFDFFF718
:10395000CDFF17F0A7FD2046F8BD00BF502B01207A
:103960003087020818870208FC2A0120064BC0F89D
:103970004C310023C0F8503100F5A273C0F8480163
:10398000C0F84031704700BF353F0008064BC0F813
:103990004C310023C0F8503100F5A273C0F8480143
:1039A000C0F84031704700BFED3D0008064BC0F83D
:1039B0004C310023C0F8503100F5A273C0F8480123
:1039C000C0F84031704700BFA53C0008064BC0F866
:1039D0004C310023C0F8503100F5A273C0F8480103
:1039E000C0F84031704700BF5D3B0008064BC0F88F
:1039F0004C310023C0F8503100F5A273C0F84801E3
:103A0000C0F84031704700BF153A000803685B6A90
:103A1000184700002DE9F14FD0E9556A0746B06814
:103A200003681B6A9847972805D8444B444AA3214A
:103A3000444820F0EFFC706803681B6A98470F2821
:103A400003D8414B3E4AA421F2E7F06803681B6AA1
:103A500098470B2803D83D4B394AA521E8E70CF0DD
:103A600093FFDFF8F09004300CF0B3FFD9F80000BA
:103A700010B10368DB689847D9F8000010B10368FB
:103A80001B689847DFF8D080D8F8000010B10368B1
:103A90005B699847D7F83C0110B103685B689847A9
:103AA000D8F8000010B103681B689847D7F83C01AC
:103AB00010B103689B689847F0680021FFF7A6FFE4
:103AC0004FF0000B224BC0F804B0044680F808B059
:103AD0000360B068036859465B6A9847054601F081
:103AE0004BFC7068036859465B6A9847294606464E
:103AF00001F022FC331DC7F83C61C9F80040C8F84A
:103B00000050CAF800302B68C6F808A02846DB68C9
:103B1000EE639847336830461B689847214628462D
:103B20000FF0E2F8236820461B69984723685B6919
:103B3000204601B0BDE8F04F184700BF15780208D5
:103B4000A378020881790208C87902086B7A020812
:103B500084870208442B0120402B01202DE9F14FDE
:103B6000D0E9556A0746B06803681B6A9847B0F504
:103B70008A7F05D2434B444AA321444820F04AFCA3
:103B8000706803681B6A98470F2803D8404B3E4A69
:103B9000A421F2E7F06803681B6A98470B2803D852
:103BA0003C4B394AA521E8E70CF0EEFEDFF8EC903B
:103BB00004300CF00EFFD9F8000010B10368DB6888
:103BC0009847D9F8000010B103681B689847DFF8E0
:103BD000D080D8F8000010B103685B699847D7F827
:103BE0003C0110B103685B689847D8F8000010B139
:103BF00003681B689847D7F83C0110B103689B68BD
:103C00009847F0680021FFF701FF4FF0000B224BAF
:103C1000C0F804B0044680F808B00360B0680368D8
:103C200059465B6A9847054601F082FC7068036854
:103C300059465B6A98472946064601F037FC331D12
:103C4000C7F83C61C9F80040C8F80050CAF8003015
:103C50002B68C6F808A02846DB68EE6398473368EF
:103C600030461B689847214628460FF03DF82368E8
:103C700020461B69984723685B69204601B0BDE870
:103C8000F04F1847157802080E7B02088179020868
:103C9000C87902086B7A020884870208442B012045
:103CA000402B01202DE9F14FD0E9556A0746B06855
:103CB00003681B6A9847B0F5C07F05D2434B444A5E
:103CC000A321444820F0A6FB706803681B6A98474C
:103CD0000F2803D8404B3E4AA421F2E7F06803685E
:103CE0001B6A98470B2803D83C4B394AA521E8E7C3
:103CF0000CF04AFEDFF8EC9004300CF06AFED9F8C4
:103D0000000010B10368DB689847D9F8000010B1D3
:103D100003681B689847DFF8D080D8F8000010B11E
:103D200003685B699847D7F83C0110B103685B688A
:103D30009847D8F8000010B103681B689847D7F877
:103D40003C0110B103689B689847F0680021FFF7B9
:103D50005DFE4FF0000B224BC0F804B0044680F823
:103D600008B00360B068036859465B6A9847054627
:103D700001F0AAFA7068036859465B6A98472946B9
:103D8000064601F07FFA331DC7F83C61C9F80040D0
:103D9000C8F80050CAF800302B68C6F808A02846BA
:103DA000DB68EE639847336830461B6898472146C6
:103DB00028460EF099FF236820461B699847236820
:103DC0005B69204601B0BDE8F04F1847157802083E
:103DD000E87B020881790208C87902086B7A020838
:103DE00084870208442B0120402B01202DE9F14F4C
:103DF000D0E9556A0746B06803681B6A9847B0F572
:103E0000517F05D2434B444AA321444820F002FB92
:103E1000706803681B6A98470F2803D8404B3E4AD6
:103E2000A421F2E7F06803681B6A98470B2803D8BF
:103E30003C4B394AA521E8E70CF0A6FDDFF8EC90F1
:103E400004300CF0C6FDD9F8000010B10368DB683F
:103E50009847D9F8000010B103681B689847DFF84D
:103E6000D080D8F8000010B103685B699847D7F894
:103E70003C0110B103685B689847D8F8000010B1A6
:103E800003681B689847D7F83C0110B103689B682A
:103E90009847F0680021FFF7B9FD4FF0000B224B67
:103EA000C0F804B0044680F808B00360B068036846
:103EB00059465B6A9847054601F08CFB70680368B9
:103EC00059465B6A98472946064601F05DFB331D5B
:103ED000C7F83C61C9F80040C8F80050CAF8003083
:103EE0002B68C6F808A02846DB68EE63984733685D
:103EF00030461B689847214628460EF0F5FE236899
:103F000020461B69984723685B69204601B0BDE8DD
:103F1000F04F184715780208BE7C02088179020824
:103F2000C87902086B7A020884870208442B0120B2
:103F3000402B01202DE9F14FD0E9556A0746B068C2
:103F400003681B6A9847B0F5C07F05D2434B444ACB
:103F5000A321444820F05EFA706803681B6A984702
:103F60000F2803D8404B3E4AA421F2E7F0680368CB
:103F70001B6A98470B2803D83C4B394AA521E8E730
:103F80000CF002FDDFF8EC9004300CF022FDD9F8C3
:103F9000000010B10368DB689847D9F8000010B141
:103FA00003681B689847DFF8D080D8F8000010B18C
:103FB00003685B699847D7F83C0110B103685B68F8
:103FC0009847D8F8000010B103681B689847D7F8E5
:103FD0003C0110B103689B689847F0680021FFF727
:103FE00015FD4FF0000B224BC0F804B0044680F8DA
:103FF00008B00360B068036859465B6A9847054695
:1040000001F016FA7068036859465B6A98472946BA
:10401000064601F0EBF9331DC7F83C61C9F80040D2
:10402000C8F80050CAF800302B68C6F808A0284627
:10403000DB68EE639847336830461B689847214633
:1040400028460EF051FE236820461B6998472368D6
:104050005B69204601B0BDE8F04F184715780208AB
:104060008E7D020881790208C87902086B7A0208FD
:1040700084870208442B0120402B0120406A7047AE
:10408000806A704770478A880B8810B5D20A4C88BE
:10409000C1699BB251F8220043EA0443184410BDA1
:1040A00010B50446BAB1107B68B1537BD27A1B02BB
:1040B00003F4E0631A43236A03EB82031A888A42FB
:1040C00002D193F9020010BD05D8013880B2043343
:1040D0000028F3D1F7E70020F5E710B52C210446BE
:1040E0001FF05CFA204610BD30B58BB00446BDF819
:1040F00060500895BDF85C5007959DF850500695A6
:104100009DF84C5005959DF8485004959DF84450F5
:1041100003959DF8405002959DF83C500195BDF8DF
:10412000385000950EF03AFA064B2360159BE36178
:10413000169B2362199B63621A9BA36220460BB0F5
:1041400030BD00BFA88702087047704710B598219E
:1041500004461FF023FA204610BD00002DE9F3416C
:1041600004460EF015FC2E4B23602E4B0025C4E9AF
:1041700010354FF48072FF2304F16C06A4F864201C
:1041800084F86630A4F890204FF6FF73264AA4F80E
:10419000923084F8943004F14007E26601A9304679
:1041A000C4E91255C4E91455C4E91655C4E91C55AF
:1041B000C4E91E55C4E92055C4E92255E5632566C6
:1041C000A566ADF8043009F0F1FE2A4629463846C6
:1041D000FFF7E4F93846F021FDF748FD38464FF483
:1041E000A071FDF745FD04F104084FF07F43A3667D
:1041F0003946404606F0AAFA2A4629463046FFF7D5
:10420000CDF901A93046ADF8045009F0CFFE404683
:10421000314606F09BFA204602B0BDE8F08100BFAF
:1042200010880208A891020878920208806A7047F4
:1042300070477047704730B4C268446855100346F1
:1042400004EB6200D20748BF62599B6830BC48BF8C
:10425000D35818470346406830B19A681AB9D868ED
:1042600000F0010070470120704710B5102104468E
:104270001FF094F9204610BD10B5B02104461FF080
:104280008DF9204610BD2C30884208B505D10CF0C0
:104290007BFBBDE80840FFF789BB08BD2DE9F34172
:1042A00006460025354B85624FF48078C0E90155FC
:1042B000C0E90355C0E90555C0E90755A0F82480B9
:1042C00046F82C3B0446304609F0B2FF04F174076F
:1042D0004FF6FF732A4A6267A4F89A3084F89C303C
:1042E00001A93846C4E91E55C4E92055C4E9225540
:1042F000C4E92455A4F89880ADF8043009F056FEBE
:10430000204BC4E92834204BC4E92A354FF024134C
:10431000A3602A4629463046FFF740F9022301AA46
:104320006946ADF8003030460323ADF8043009F09B
:1043300076FC3046A4F86450FFF73EF94FF0FF33A7
:10434000C4E91A3304F1A00363653146204606F040
:10435000FDF96FF0060211463846FFF71FF90623F4
:1043600001A93846ADF8043009F020FE2046394650
:1043700006F0ECF9204602B0BDE8F0815C88020846
:104380007892020844880208874200087047704704
:10439000704730B4C26844685510034604EB6200AD
:1043A000D20748BF62599B6830BC48BFD3581847F2
:1043B0000346406830B19A681AB9D86800F0010025
:1043C00070470120704710B5102104461FF0E6F831
:1043D000204610BD10B54FF4C07104461FF0DEF842
:1043E000204610BD38B500F59473994204460D4639
:1043F00003D10CF0C9FAFFF7C9FA04F1E0039D42BA
:1044000003D10CF0C1FAFFF7E1FA9834A54205D1C7
:104410000CF0BAFABDE83840FFF7D8BA38BD000052
:104420002DE9F04F044685B00EF0B2FA674B2360D9
:10443000674B0025C4E910354FF48072FF2304F167
:104440006C06A4F8642084F86630A4F890204FF637
:10445000FF73604AE266A4F8923084F8943003A9AE
:1044600004F1980A3046C4E91255C4E91455C4E968
:104470001655C4E91C55C4E91E55C4E92055C4E9C4
:104480002255E5632566A566ADF80C3004F1E00918
:1044900009F08CFD504609F0CBFE04F594784846AF
:1044A00009F0C6FE404609F0C3FE4B4BC4E95C343C
:1044B0004A4B04F1400B2A46C4E95E35294658466A
:1044C000FFF76CF85846F021FDF7D0FB58464FF443
:1044D000A071FDF7CDFB271D4FF07F43A366594622
:1044E000384606F033F92A4629463046FFF756F893
:1044F00003A93046ADF80C5009F058FD3146384656
:1045000006F024F929465046D222FFF747F84FF02B
:10451000050B042302A903AA5046ADF80830ADF8F4
:104520000CB009F07CFB0222A4F8D0205046FFF723
:1045300043F84FF0FF3604F5B873C4F8C030514665
:104540003846C4E93566019306F000F92946484625
:104550008122FFF723F8042302A903AA4846ADF8F5
:104560000830ADF80CB009F05AFB0322A4F818216A
:104570004846FFF721F8019BC4F808314946384600
:10458000C4E9476606F0E2F8294640463022FFF7C4
:1045900005F803AA02A904234046ADF80830ADF897
:1045A0000CB009F03CFB0B23A4F860314046FFF748
:1045B00003F8019BC4F850313846C4E959664146B6
:1045C00006F0C4F8204605B0BDE8F08F088902085F
:1045D000A891020878920208F0880208E5430008D2
:1045E0007047000030B5164D2C6814F001048FB0F0
:1045F000BFF35B8F20D128461EF0D2FFE0B13F23EE
:104600000993104B0893104B104911480A9401224A
:10461000CDE906430423CDE903320A230093CDE913
:104620000B44CDE901440594FFF75EFD09481FF0F6
:104630000FFF28461EF0C0FF05480FB030BD00BF79
:10464000B41C002080CA0208CCCA0208C0C30208F9
:10465000B81C0020E14500087047000030B5174D38
:104660002C6814F001048FB0BFF35B8F22D1284671
:104670001EF096FFF0B13F230993114B0893114BA5
:1046800007930123CDE9054304930423CDE90243B5
:1046900014230D4900931A221823CDE90B440B482B
:1046A0000A940194FFF720FD09481FF0D1FE284627
:1046B0001EF082FF05480FB030BD00BFE41C002093
:1046C00084CA0208D0CA0208D0C30208E81C00202D
:1046D000594600087047000030B5164D2C6814F09C
:1046E00001048FB0BFF35B8F20D128461EF058FF26
:1046F000E0B13F230993104B0893104B1049114828
:104700000A940122CDE906430423CDE9033228238C
:104710000093CDE90B44CDE901440594FFF7E4FC97
:1047200009481FF095FE28461EF046FF05480FB0C9
:1047300030BD00BF141D0020C4CA0208D4CA02083C
:104740003CC50208181D0020D5460008704700002F
:1047500030B5174D2C6814F001048FB0BFF35B8F98
:1047600023D128461EF01CFFF8B13F230993114BBB
:104770000893114B07930323CDE90533012204234A
:10478000CDE9033214230D4900935F221823CDE9AC
:104790000B44CDE901440A480A94FFF7A5FC0948F7
:1047A0001FF056FE28461EF007FF05480FB030BD2B
:1047B000441D0020C8CA0208D8CA02084CC5020815
:1047C000481D00204D47000800207047002070471A
:1047D0000EB403B503AB002153F8042B01930DF085
:1047E0005BF902B05DF804EB03B070470CB407B599
:1047F00004AB53F8042B01930DF04EF903B05DF8B0
:1048000004EB02B070470000436C10B5044673B36C
:10481000038F2BB9184B194AC52119481FF0FAFD0F
:10482000C38E00EB43035B8C0BB30EF0B6FF238FFC
:10483000012B03D8134B144ACB21EEE7E28E531C15
:104840009BB2092B194688BFA3F10A0104EB410171
:1048500040F63F10498C814209D10A2B04EB4202F9
:1048600028BF002304EB4303508C58845184204616
:10487000BDE810400EF094BE5A7E0208637E020826
:104880000E7F0208587F0208667F02080EF04FBEB6
:1048900010B586B002AC84E806001A460AAB059350
:1048A0000193099B00932146089B0BF00BFC06B07B
:1048B00010BD000038B518BB124B13481C681349D3
:1048C000B4B1226822440260626822440A60A2688D
:1048D00014440F4B00221A8000F038F8054600F00F
:1048E00033F80C4B1C600C4B1D600C4B188007E020
:1048F0000B4B03600B4B0B600B4B1C68002CE8D17F
:1049000038BD00BF801D0020781D0020741D0020D0
:104910007C1D0020542B01205C2B0120582B0120F2
:104920000CCB0208DCCA0208A4CB0208044B1B68AB
:1049300053F82100034B1B6803EB4000704700BF96
:10494000741D0020781D00200C207047004870471F
:10495000841D002010B5FFF781FE064C2060FFF794
:10496000BBFE6060FFF73EFEA060FFF7F1FEE06077
:1049700010BD00BF841D002010B5002404600C6031
:1049800014601C6010BD70477047704703681B6B54
:10499000184710B54FF48A7104461EF0FFFD2046FB
:1049A00010BD08B50BF0F0FFBDE80840FEF7FEBFF4
:1049B00070B504461D46BDF91060FEF7EFFD236893
:1049C000294620469B6B9847236831462046DB6B7F
:1049D000BDE87040184700000022C0E90122C0E98C
:1049E0000322C0E90522C0E907224FF480728284C5
:1049F000014A0260704700BF3C89020810B52622B8
:104A00000446002120F099FB2046FFF7E5FF044B08
:104A10002360FF2384F826300023A362204610BDC4
:104A2000A89102082DE9F04F044689B0A046002560
:104A30000DF0AEFF544BE56348F8403B04F16C07C2
:104A40004FF0260B4046FFF7D9FF4FF6FF795A4645
:104A500029463846ADF8189020F06FFB3846FFF72E
:104A6000BBFF4A4BE366BDF81830A4F8923006A9A4
:104A700004F1980A84F89490384609F097FA504661
:104A8000FFF7BCFF04F1CC06414BC4F898305A46FE
:104A90002946C4F8C450A4F8C850304620F04DFB55
:104AA0003046FFF799FF3B4BC4F8CC303A4BC4F883
:104AB000F4304FF47F03C4F800314FF0FF33C4E902
:104AC00043354FF4A073A4F8F890C4F8FC5004F1F7
:104AD0000409A4F80451C4F808512A460093294651
:104AE000F02340464FF07F4BFFF762FF41464846B8
:104AF000C4F868B005F02AFE2A4629463846FEF773
:104B00004DFD4FF0010806A93846ADF8188009F0B0
:104B10004DFA3946484605F019FE322300935046B7
:104B2000C02349221821FFF743FF1C4A1C4BC4E94C
:104B300030230523A4F8C8305146484605F006FE48
:104B4000562230463921FEF729FDA4F8005102AD66
:104B500031462846C4F8FCB008F06AFD95E8070025
:104B600004F5847383E807000B4B069306A93046CF
:104B7000ADF81C8008F0F6FF4846314605F0E6FD2A
:104B8000204609B0BDE8F08FA48902087892020897
:104B9000109202081891020808870208C4C0B3FFE7
:104BA0002B3333FF30B5036885B06D460181D3F8F0
:104BB0008430014604462846984795E807003C346F
:104BC00084E8070005B030BD30B5036885B06D4698
:104BD0004181D3F88430014604462846984795E839
:104BE00007003C3484E8070005B030BD0022028095
:104BF00042808280C280704780F83610704770B55E
:104C0000036804461B6B15469847236829462046CF
:104C10005B6EBDE870401847806C7047C06C704791
:104C20007047704770477047704790F82C304BB111
:104C300000F16C021268C2653BB100F174031B689D
:104C40000366704700F16802F4E700F17003F6E7CD
:104C500008B590F82C303BB100F1C4031B68C0F8D4
:104C6000A830FFF7E2FF08BD00F1C003F6E730B45B
:104C7000C26844685510034604EB6200D20748BF7F
:104C800062599B6830BC48BFD358184703464068F8
:104C900030B19A681AB9D86800F001007047012055
:104CA000704790F82D3080F8AE3080F85A30704759
:104CB00090F82D3080F85A30704710B550210446D6
:104CC0001EF06CFC204610BD10B5782104461EF085
:104CD00065FC204610BD10B5C82104461EF05EFCE0
:104CE000204610BD10B5102104461EF057FC20468A
:104CF00010BD00F5177000F069BB08B5FDF76CF842
:104D000008BD10B50446006B50B10368DB689847D6
:104D100030B1206B036821469B68BDE810401847FE
:104D200010BD00F5A2728A4202D10368DB6A1847FF
:104D300070470B7970B590F82C6004460D460BB99E
:104D400016B170BD002EFCD0B3FA83F35B0984F872
:104D50002C3023682046D3F88C30984723682046AF
:104D60005B699847002EECD02B79012BE9D12368A1
:104D70002046D3F88830BDE870401847036870B506
:104D80005E6B124B1B6804468DB22BB9104B114A57
:104D90006C2111481FF03EFB1049828D0988914219
:104DA00003D80F4B0B4A6D21F3E713F812200D4B7C
:104DB0001B6853F8220003681B6B9847291A334677
:104DC000204609B2BDE87040184700BF542B0120AF
:104DD0005177020893770208CE770208582B0120FA
:104DE000388002085C2B012000224FF0FF31C0E91F
:104DF000002182607047000010B5064B0360064B2F
:104E0000C0F85C32044600F51770FFF712FA20462E
:104E100010BD00BFC08B02080C8D020810B50446FF
:104E2000FFF7EAFF20464FF451711EF0B7FB204612
:104E300010BD70B5036804469B6B15469847236800
:104E400029462046DB6BBDE87040184710B5262286
:104E50000446002120F071F92046FFF7BDFD0A4B02
:104E600023600A4BA3624FF6FF73A3854FF47F02C2
:104E70000023C4E90C3223874FF0FF32C4E910232A
:104E8000E363204610BD00BF18910208088702089E
:104E90004FF47F4370B50646838540F20113002529
:104EA0008384124B8562C0E90155C0E90355C0E90E
:104EB0000555C0E90755056346F8343B04463046BE
:104EC000FFF79CFD0A4B63632A4629463046C4E936
:104ED0001A55C4E91C552566A4F86450FEF75EFB1C
:104EE0002046314605F032FC204670BD708A02082B
:104EF000109202082DE9F04F04468DB0A14600251E
:104F00000DF046FDC24BE56349F8403B04F16C06E9
:104F10004846FFF773FD4FF6FF77262229463046B5
:104F2000ADF8287020F009F93046FFF755FDB94B70
:104F3000E366BDF82830A4F892300AA904F1980A73
:104F4000304684F8947009F031F85046FFF756FD6A
:104F500004F1CC07B04BC4F8983004F5A27B384676
:104F6000C4F8C450A4F8C850FFF792FF5846FFF7A2
:104F70008FFF04F5DE78A94BC4F844314046FFF7B3
:104F800065FF41465846C4E9815505F0DFFB04F54D
:104F9000037318460393FFF759FFA14BC4F80C3273
:104FA00004F517731846C4E99555049300F004FA04
:104FB0009C4BC4E9CD349C4BC4E9CF354FF4A0736E
:104FC0002A46484600932946F023FFF7F1FC4FF0AC
:104FD0007F43A366231D18464946059305F0B6FB9B
:104FE0002A4630462946FEF7D9FA30460AA9ADF8D6
:104FF000285008F0DBFF3146201D322605F0A6FBC5
:1050000050460096C02330221821FFF7D1FC4FF004
:1050100005094FF0FF324FF07F43C4E9302351467A
:10502000201DA4F8C89005F091FB29460096C023E6
:105030002A4604F58070FFF7BBFC7C4BC4F8343182
:1050400003F54C533333C4F83831A3F5CC43784AD5
:10505000D4F8CCA0C4F84021663B3846C4F83C31B3
:10506000A4F83091FFF7E1FD84F8F950DAF89030B8
:1050700038469847C0233022384600961821FFF75B
:1050800097FC4FF02A0A3946201D05F05FFB3B23B1
:105090002A46294604F5BC70CDF800A0FFF788FC2D
:1050A0006449654B624AC4F8B821C4E96B1303F53F
:1050B00026034B33C4F8B431D4F84431A4F8A89192
:1050C000D3F88C305D4F584698470A2640460AA9C7
:1050D0000A97ADF82C6008F045FD4046B4F94E2122
:1050E000B4F94C11FFF7A5FE4A46294640463B233A
:1050F000CDF800A0FFF75CFC514B5846C4E9813362
:10510000FFF7A6FD04F54D73C4F874314FF48372B4
:105110003B23584684F86951AD21CDF800A0FFF734
:1051200047FC5946201D05F011FB3D220398DFF88E
:1051300028B15221FEF732FA4FF07F43C4F83C32D7
:10514000D4F80C320399D3F88430A4F840520DF10E
:1051500018084046984798E8070004F5127383E85A
:105160000700DBF8003004F543782BB9354B364A9D
:10517000602136481FF04EF9DFF8E0A0BAF80030A1
:10518000082B03D8324B304A6121F2E7DFF8D09088
:105190000821D9F80000FFF7C9FB2E4A0346314623
:1051A00040460FF0A3F8DBF80030C4F8548204F551
:1051B0004878002BDAD0BAF80030072BE2D9D9F8BA
:1051C00000000721FFF7B2FB224A03463146404662
:1051D0000FF08CF80398C4F8588208F0A3FC092358
:1051E0000398ADF82C300AA90A9708F0BBFC039984
:1051F000201D05F0ABFA04982A462946FEF7CEF9A1
:10520000201D049905F0A2FA20460DB0BDE8F08FEC
:10521000C08B020878920208109202080C8B0208D8
:10522000E0890208A88B0208234D0008996600FF58
:10523000996633FF00FFDDFFCC9900FF0887020865
:105240000A0A0AFF5177020876800208CE77020820
:1052500038800208C1800208542B0120582B0120FD
:10526000602B01207047704704387047704710B5B5
:10527000102104461EF092F9204610BDA0F1040052
:10528000F5E7000000228260024A026018324260A4
:10529000C1607047F88B02087047000010B5034BDF
:1052A00003600446FEF732F9204610BD248C020844
:1052B00010B50446FFF7F2FF20464FF4C0711EF010
:1052C0006DF9204610BD000010B50446FEF7B6F992
:1052D000014B2360204610BD248C0208FEF717B94D
:1052E000704710B54FF4AE7104461EF057F92046D2
:1052F00010BD10B50446D0F8580100F0ABF82046B8
:10530000BDE810400BF0C2BB10B50446FEF7FAFA38
:10531000014B2360204610BD588C020870470438AA
:105320007047704710B5102104461EF037F920462B
:1053300010BDA0F10400F5E700228260024A02607D
:1053400018324260C1607047AC8C020870470000A0
:1053500010B5034B03600446FEF7F6FE204610BD71
:10536000D88C020810B50446FFF7F2FF20469821BA
:105370001EF014F9204610BD10B50446FEF7EEFEEF
:10538000014B2360204610BDD88C0208FEF7DDBE1D
:1053900010B5034B03600446FEF74BFF204610BDDB
:1053A0000C8D020810B50446FFF7F2FF2046B0212D
:1053B0001EF0F4F8204610BD10B50446FEF76EFF4F
:1053C000014B2360204610BD0C8D0208FEF732BF52
:1053D000704704387047704710B5102104461EF01E
:1053E000DDF8204610BDA0F10400F5E70022826040
:1053F000024A026018324260C1607047A08D020804
:105400007047000010B5034B03600446FEF7BFFF72
:10541000204610BDCC8D020810B50446FFF7F2FF00
:1054200020464FF4C0711EF0B9F8204610BD0000B0
:1054300010B50446FEF7F4FF014B2360204610BD73
:10544000CC8D0208FEF7A4BF002202600022426059
:105450007047000013B504460C48002300681A4644
:1054600001A903F02FF978B99DED010AD4ED017A75
:10547000F4EE407AF1EE10FA06D0206884ED010ACD
:1054800010B103689B68984702B010BDD81900207E
:10549000704704387047704710B5102104461EF05D
:1054A0007DF8204610BDA0F10400F5E700228260DF
:1054B000024A026018324260C1607047008E0208E2
:1054C000014B186802F0C0BFE419002010B5034B6F
:1054D00003600446FFF758FA204610BD2C8E0208E0
:1054E00010B50446FFF7F2FF20464FF48A711EF014
:1054F00055F8204610BD000037B50C4D044628680D
:1055000003F010F978B14FF0FF33286800220DF155
:10551000070103F0D7F89DF80730412B03D123682A
:105520002046DB6A984703B030BD00BFDC1900207D
:1055300010B50446FFF776FA014B2360204610BDF4
:105540002C8E020808B5FFF720FA034B1868BDE857
:10555000084002F088BF00BFE419002070470438FB
:1055600070477047C06803681B6B1847A0F10400C0
:10557000FFF7F8BF10B5102104461EF00FF82046C3
:1055800010BDA0F10400F5E700228260024A02602B
:105590001C324260C1607047688E0208014B186877
:1055A00002F052BFE819002010B5034B0360044617
:1055B000FFF722FC204610BD988E020810B5044665
:1055C000FFF7F2FF20464FF451711DF0E7FF204630
:1055D00010BD000010B50446FFF78CFC014B2360A2
:1055E000204610BD988E020810B50446FFF781FBD7
:1055F000054B186802F037FF23689FED040A1B6B08
:105600002046BDE810401847E819002000000000BF
:1056100038B52DED028BFDEEC08A154D18EE903A8F
:1056200004462A4623EAE3730A2100F54370B0EEEC
:10563000408A0EF05BFEF8EEE88ADFED0E7A38EE77
:10564000688A2A4628EE278A04F54870FDEEC87A53
:105650000A2117EE903A23EAE3730EF047FEBDEC01
:10566000028B04F50370BDE838400CF03FBB00BF6F
:10567000C48002080000C842F02070474FF4A070B8
:1056800070472920FDF7ACB92820FDF7A9B908B566
:10569000FDF77AF9CA20FDF7A3F9C320FDF784F9D5
:1056A0000820FDF781F95020FDF77EF9CF20FDF7A6
:1056B00097F90020FDF778F9C120FDF775F9302042
:1056C000FDF772F9ED20FDF78BF96420FDF76CF919
:1056D0000320FDF769F91220FDF766F98120FDF737
:1056E00063F9E820FDF77CF98520FDF75DF90020DE
:1056F000FDF75AF97820FDF757F9CB20FDF770F93F
:105700003920FDF751F92C20FDF74EF90020FDF767
:105710004BF93420FDF748F90220FDF745F9F72051
:10572000FDF75EF92020FDF73FF9EA20FDF758F973
:105730000020FDF739F90020FDF736F9B120FDF71B
:105740004FF90020FDF730F91B20FDF72DF9B620A9
:10575000FDF746F90A20FDF727F9A220FDF724F905
:10576000C020FDF73DF91020FDF71EF9C120FDF71F
:1057700037F91020FDF718F9C520FDF731F945205C
:10578000FDF712F91520FDF70FF9C720FDF728F9ED
:105790009020FDF709F93620FDF722F9C820FDF722
:1057A00003F9F220FDF71CF90020FDF7FDF8B02009
:1057B000FDF716F9C220FDF7F7F8B620FDF710F94E
:1057C0000A20FDF7F1F8A720FDF7EEF82720FDF7F6
:1057D000EBF80420FDF7E8F82A20FDF701F9002096
:1057E000FDF7E2F80020FDF7DFF80020FDF7DCF818
:1057F000EF20FDF7D9F82B20FDF7F2F80020FDF798
:10580000D3F80020FDF7D0F80120FDF7CDF83F20B8
:10581000FDF7CAF8F620FDF7E3F80120FDF7C4F81C
:105820000020FDF7C1F80620FDF7BEF82C20FDF79B
:10583000D7F8C820FDF722F92620FDF7D1F801207E
:10584000FDF7B2F8E020FDF7CBF80F20FDF7ACF83C
:105850002920FDF7A9F82420FDF7A6F80C20FDF774
:10586000A3F80E20FDF7A0F80920FDF79DF84E20C3
:10587000FDF79AF87820FDF797F83C20FDF794F8AB
:105880000920FDF791F81320FDF78EF80520FDF7AC
:105890008BF81720FDF788F81120FDF785F8002018
:1058A000FDF782F8E120FDF79BF80020FDF77CF87A
:1058B0001620FDF779F81B20FDF776F80420FDF798
:1058C00073F81120FDF770F80720FDF76DF831200F
:1058D000FDF76AF83320FDF767F84220FDF764F81A
:1058E0000520FDF761F80C20FDF75EF80A20FDF7B2
:1058F0005BF82820FDF758F82F20FDF755F80F200A
:10590000FDF752F81120FDF76BF8C820FDF7B6F847
:105910002920FDF765F8BDE808402C20FDF760B8A8
:1059200008B5FDF731F80321D320FDF775F880B2F3
:1059300008BD10B5C4B2022203212046FCF7DAFFED
:105940000A20FDF71FF8204600220321FCF7D2FFB2
:10595000BDE810400220FDF715B838B50446E4B2A2
:10596000FCF7C6FF00212046FCF7DCFF01210546BD
:105970002046FCF7D7FF40EA052080B238BD10B5BD
:10598000C4B240212046FCF7CDFF030607D54C21C9
:105990002046FCF7C7FF003818BF012010BD0122C8
:1059A0004B212046FCF7A6FF204600224B21FCF7A6
:1059B000A1FF0020F2E773B50423C4B20E461546DA
:1059C000D7210DEB03022046FCF7C6FF019B1BBA53
:1059D0001A0DC3F30B23328020462B8001224B216A
:1059E000FCF788FF00224B212046FCF783FF02B022
:1059F00070BD000010B50A4A1378984204460DD0D5
:105A0000517888420AD00BB141B90123D454FCF734
:105A10006FFF2046BDE81040FFF78BBF10BD00BFF1
:105A2000941D002010B5C4B209212046FCF77AFF6E
:105A300040F00102D2B220460921BDE81040FCF737
:105A400059BF10B5C4B209212046FCF76BFF0921EC
:105A500000F0FE022046BDE81040FCF74BBF38B511
:105A6000C4B20D4620460A21FCF75CFF40EA05025D
:105A7000D2B220460A21BDE83840FCF73BBF10B542
:105A80000446FCF736FF20461F21FFF7E8FF2046BB
:105A9000BDE81040FFF7C6BF38B5C4B20D4620467A
:105AA0000A21FCF73FFF20EA0502D2B220460A2174
:105AB000BDE83840FCF71EBF10B50446FFF7C1FF34
:105AC00020461F21BDE81040FFF7E6BF10B5C0B269
:105AD0000C460B21FCF726FF204010BD1F21FFF7CD
